{"contracts/lib/Library.sol":{"Library":{"abi":[{"inputs":[{"internalType":"string","name":"a","type":"string"},{"internalType":"string","name":"b","type":"string"}],"name":"compareString","outputs":[{"internalType":"bool","name":"","type":"bool"}],"stateMutability":"pure","type":"function"},{"inputs":[{"internalType":"string","name":"str","type":"string"}],"name":"getLengthOfString","outputs":[{"internalType":"uint256","name":"","type":"uint256"}],"stateMutability":"pure","type":"function"}],"evm":{"bytecode":{"linkReferences":{},"object":"610872610053600b82828239805160001a607314610046577f4e487b7100000000000000000000000000000000000000000000000000000000600052600060045260246000fd5b30600052607381538281f3fe73000000000000000000000000000000000000000030146080604052600436106100615760003560e01c80634708f2711461006657806375b83187146100965780638d00e5ff146100c6578063a798e494146100f6578063e2c94c0514610126575b600080fd5b610080600480360381019061007b919061048a565b610156565b60405161008d91906104ec565b60405180910390f35b6100b060048036038101906100ab9190610507565b610166565b6040516100bd919061059a565b60405180910390f35b6100e060048036038101906100db91906105eb565b6101bf565b6040516100ed91906104ec565b60405180910390f35b610110600480360381019061010b919061067a565b6101cd565b60405161011d919061059a565b60405180910390f35b610140600480360381019061013b91906106e1565b610322565b60405161014d91906104ec565b60405180910390f35b6000808290508051915050919050565b600081604051602001610179919061077f565b60405160208183030381529060405280519060200120836040516020016101a0919061077f565b6040516020818303038152906040528051906020012014905092915050565b600081805490509050919050565b6000806001905060005b868110156103155760008482815481106101f4576101f3610796565b5b9060005260206000209060040201600101549050600085838154811061021d5761021c610796565b5b9060005260206000209060040201600201549050878210801561023f57508681115b806102545750878211801561025357508681105b5b806102695750878214801561026857508681145b5b8061027e5750878210801561027d57508681145b5b806102935750878211801561029257508681145b5b806102a8575087821480156102a757508681105b5b806102bd575087821480156102bc57508681115b5b806102dd575087821080156102d157508781115b80156102dc57508681105b5b806102fd575086821080156102f157508681115b80156102fc57508782115b5b1593505050808061030d906107f4565b9150506101d7565b5080915050949350505050565b600081805490509050919050565b6000604051905090565b600080fd5b600080fd5b600080fd5b600080fd5b6000601f19601f8301169050919050565b7f4e487b7100000000000000000000000000000000000000000000000000000000600052604160045260246000fd5b6103978261034e565b810181811067ffffffffffffffff821117156103b6576103b561035f565b5b80604052505050565b60006103c9610330565b90506103d5828261038e565b919050565b600067ffffffffffffffff8211156103f5576103f461035f565b5b6103fe8261034e565b9050602081019050919050565b82818337600083830152505050565b600061042d610428846103da565b6103bf565b90508281526020810184848401111561044957610448610349565b5b61045484828561040b565b509392505050565b600082601f83011261047157610470610344565b5b813561048184826020860161041a565b91505092915050565b6000602082840312156104a05761049f61033a565b5b600082013567ffffffffffffffff8111156104be576104bd61033f565b5b6104ca8482850161045c565b91505092915050565b6000819050919050565b6104e6816104d3565b82525050565b600060208201905061050160008301846104dd565b92915050565b6000806040838503121561051e5761051d61033a565b5b600083013567ffffffffffffffff81111561053c5761053b61033f565b5b6105488582860161045c565b925050602083013567ffffffffffffffff8111156105695761056861033f565b5b6105758582860161045c565b9150509250929050565b60008115159050919050565b6105948161057f565b82525050565b60006020820190506105af600083018461058b565b92915050565b6000819050919050565b6105c8816105b5565b81146105d357600080fd5b50565b6000813590506105e5816105bf565b92915050565b6000602082840312156106015761060061033a565b5b600061060f848285016105d6565b91505092915050565b610621816104d3565b811461062c57600080fd5b50565b60008135905061063e81610618565b92915050565b6000819050919050565b61065781610644565b811461066257600080fd5b50565b6000813590506106748161064e565b92915050565b600080600080608085870312156106945761069361033a565b5b60006106a28782880161062f565b94505060206106b38782880161062f565b93505060406106c48782880161062f565b92505060606106d587828801610665565b91505092959194509250565b6000602082840312156106f7576106f661033a565b5b600061070584828501610665565b91505092915050565b600081519050919050565b600081905092915050565b60005b83811015610742578082015181840152602081019050610727565b60008484015250505050565b60006107598261070e565b6107638185610719565b9350610773818560208601610724565b80840191505092915050565b600061078b828461074e565b915081905092915050565b7f4e487b7100000000000000000000000000000000000000000000000000000000600052603260045260246000fd5b7f4e487b7100000000000000000000000000000000000000000000000000000000600052601160045260246000fd5b60006107ff826104d3565b91507fffffffffffffffffffffffffffffffffffffffffffffffffffffffffffffffff8203610831576108306107c5565b5b60018201905091905056fea26469706673582212203085ad0b0cdeb0775b993ce27ea8b0436339982fabf6412a679edb6c35cc42e864736f6c63430008110033","opcodes":"PUSH2 0x872 PUSH2 0x53 PUSH1 0xB DUP3 DUP3 DUP3 CODECOPY DUP1 MLOAD PUSH1 0x0 BYTE PUSH1 0x73 EQ PUSH2 0x46 JUMPI PUSH32 0x4E487B7100000000000000000000000000000000000000000000000000000000 PUSH1 0x0 MSTORE PUSH1 0x0 PUSH1 0x4 MSTORE PUSH1 0x24 PUSH1 0x0 REVERT JUMPDEST ADDRESS PUSH1 0x0 MSTORE PUSH1 0x73 DUP2 MSTORE8 DUP3 DUP2 RETURN INVALID PUSH20 0x0 ADDRESS EQ PUSH1 0x80 PUSH1 0x40 MSTORE PUSH1 0x4 CALLDATASIZE LT PUSH2 0x61 JUMPI PUSH1 0x0 CALLDATALOAD PUSH1 0xE0 SHR DUP1 PUSH4 0x4708F271 EQ PUSH2 0x66 JUMPI DUP1 PUSH4 0x75B83187 EQ PUSH2 0x96 JUMPI DUP1 PUSH4 0x8D00E5FF EQ PUSH2 0xC6 JUMPI DUP1 PUSH4 0xA798E494 EQ PUSH2 0xF6 JUMPI DUP1 PUSH4 0xE2C94C05 EQ PUSH2 0x126 JUMPI JUMPDEST PUSH1 0x0 DUP1 REVERT JUMPDEST PUSH2 0x80 PUSH1 0x4 DUP1 CALLDATASIZE SUB DUP2 ADD SWAP1 PUSH2 0x7B SWAP2 SWAP1 PUSH2 0x48A JUMP JUMPDEST PUSH2 0x156 JUMP JUMPDEST PUSH1 0x40 MLOAD PUSH2 0x8D SWAP2 SWAP1 PUSH2 0x4EC JUMP JUMPDEST PUSH1 0x40 MLOAD DUP1 SWAP2 SUB SWAP1 RETURN JUMPDEST PUSH2 0xB0 PUSH1 0x4 DUP1 CALLDATASIZE SUB DUP2 ADD SWAP1 PUSH2 0xAB SWAP2 SWAP1 PUSH2 0x507 JUMP JUMPDEST PUSH2 0x166 JUMP JUMPDEST PUSH1 0x40 MLOAD PUSH2 0xBD SWAP2 SWAP1 PUSH2 0x59A JUMP JUMPDEST PUSH1 0x40 MLOAD DUP1 SWAP2 SUB SWAP1 RETURN JUMPDEST PUSH2 0xE0 PUSH1 0x4 DUP1 CALLDATASIZE SUB DUP2 ADD SWAP1 PUSH2 0xDB SWAP2 SWAP1 PUSH2 0x5EB JUMP JUMPDEST PUSH2 0x1BF JUMP JUMPDEST PUSH1 0x40 MLOAD PUSH2 0xED SWAP2 SWAP1 PUSH2 0x4EC JUMP JUMPDEST PUSH1 0x40 MLOAD DUP1 SWAP2 SUB SWAP1 RETURN JUMPDEST PUSH2 0x110 PUSH1 0x4 DUP1 CALLDATASIZE SUB DUP2 ADD SWAP1 PUSH2 0x10B SWAP2 SWAP1 PUSH2 0x67A JUMP JUMPDEST PUSH2 0x1CD JUMP JUMPDEST PUSH1 0x40 MLOAD PUSH2 0x11D SWAP2 SWAP1 PUSH2 0x59A JUMP JUMPDEST PUSH1 0x40 MLOAD DUP1 SWAP2 SUB SWAP1 RETURN JUMPDEST PUSH2 0x140 PUSH1 0x4 DUP1 CALLDATASIZE SUB DUP2 ADD SWAP1 PUSH2 0x13B SWAP2 SWAP1 PUSH2 0x6E1 JUMP JUMPDEST PUSH2 0x322 JUMP JUMPDEST PUSH1 0x40 MLOAD PUSH2 0x14D SWAP2 SWAP1 PUSH2 0x4EC JUMP JUMPDEST PUSH1 0x40 MLOAD DUP1 SWAP2 SUB SWAP1 RETURN JUMPDEST PUSH1 0x0 DUP1 DUP3 SWAP1 POP DUP1 MLOAD SWAP2 POP POP SWAP2 SWAP1 POP JUMP JUMPDEST PUSH1 0x0 DUP2 PUSH1 0x40 MLOAD PUSH1 0x20 ADD PUSH2 0x179 SWAP2 SWAP1 PUSH2 0x77F JUMP JUMPDEST PUSH1 0x40 MLOAD PUSH1 0x20 DUP2 DUP4 SUB SUB DUP2 MSTORE SWAP1 PUSH1 0x40 MSTORE DUP1 MLOAD SWAP1 PUSH1 0x20 ADD KECCAK256 DUP4 PUSH1 0x40 MLOAD PUSH1 0x20 ADD PUSH2 0x1A0 SWAP2 SWAP1 PUSH2 0x77F JUMP JUMPDEST PUSH1 0x40 MLOAD PUSH1 0x20 DUP2 DUP4 SUB SUB DUP2 MSTORE SWAP1 PUSH1 0x40 MSTORE DUP1 MLOAD SWAP1 PUSH1 0x20 ADD KECCAK256 EQ SWAP1 POP SWAP3 SWAP2 POP POP JUMP JUMPDEST PUSH1 0x0 DUP2 DUP1 SLOAD SWAP1 POP SWAP1 POP SWAP2 SWAP1 POP JUMP JUMPDEST PUSH1 0x0 DUP1 PUSH1 0x1 SWAP1 POP PUSH1 0x0 JUMPDEST DUP7 DUP2 LT ISZERO PUSH2 0x315 JUMPI PUSH1 0x0 DUP5 DUP3 DUP2 SLOAD DUP2 LT PUSH2 0x1F4 JUMPI PUSH2 0x1F3 PUSH2 0x796 JUMP JUMPDEST JUMPDEST SWAP1 PUSH1 0x0 MSTORE PUSH1 0x20 PUSH1 0x0 KECCAK256 SWAP1 PUSH1 0x4 MUL ADD PUSH1 0x1 ADD SLOAD SWAP1 POP PUSH1 0x0 DUP6 DUP4 DUP2 SLOAD DUP2 LT PUSH2 0x21D JUMPI PUSH2 0x21C PUSH2 0x796 JUMP JUMPDEST JUMPDEST SWAP1 PUSH1 0x0 MSTORE PUSH1 0x20 PUSH1 0x0 KECCAK256 SWAP1 PUSH1 0x4 MUL ADD PUSH1 0x2 ADD SLOAD SWAP1 POP DUP8 DUP3 LT DUP1 ISZERO PUSH2 0x23F JUMPI POP DUP7 DUP2 GT JUMPDEST DUP1 PUSH2 0x254 JUMPI POP DUP8 DUP3 GT DUP1 ISZERO PUSH2 0x253 JUMPI POP DUP7 DUP2 LT JUMPDEST JUMPDEST DUP1 PUSH2 0x269 JUMPI POP DUP8 DUP3 EQ DUP1 ISZERO PUSH2 0x268 JUMPI POP DUP7 DUP2 EQ JUMPDEST JUMPDEST DUP1 PUSH2 0x27E JUMPI POP DUP8 DUP3 LT DUP1 ISZERO PUSH2 0x27D JUMPI POP DUP7 DUP2 EQ JUMPDEST JUMPDEST DUP1 PUSH2 0x293 JUMPI POP DUP8 DUP3 GT DUP1 ISZERO PUSH2 0x292 JUMPI POP DUP7 DUP2 EQ JUMPDEST JUMPDEST DUP1 PUSH2 0x2A8 JUMPI POP DUP8 DUP3 EQ DUP1 ISZERO PUSH2 0x2A7 JUMPI POP DUP7 DUP2 LT JUMPDEST JUMPDEST DUP1 PUSH2 0x2BD JUMPI POP DUP8 DUP3 EQ DUP1 ISZERO PUSH2 0x2BC JUMPI POP DUP7 DUP2 GT JUMPDEST JUMPDEST DUP1 PUSH2 0x2DD JUMPI POP DUP8 DUP3 LT DUP1 ISZERO PUSH2 0x2D1 JUMPI POP DUP8 DUP2 GT JUMPDEST DUP1 ISZERO PUSH2 0x2DC JUMPI POP DUP7 DUP2 LT JUMPDEST JUMPDEST DUP1 PUSH2 0x2FD JUMPI POP DUP7 DUP3 LT DUP1 ISZERO PUSH2 0x2F1 JUMPI POP DUP7 DUP2 GT JUMPDEST DUP1 ISZERO PUSH2 0x2FC JUMPI POP DUP8 DUP3 GT JUMPDEST JUMPDEST ISZERO SWAP4 POP POP POP DUP1 DUP1 PUSH2 0x30D SWAP1 PUSH2 0x7F4 JUMP JUMPDEST SWAP2 POP POP PUSH2 0x1D7 JUMP JUMPDEST POP DUP1 SWAP2 POP POP SWAP5 SWAP4 POP POP POP POP JUMP JUMPDEST PUSH1 0x0 DUP2 DUP1 SLOAD SWAP1 POP SWAP1 POP SWAP2 SWAP1 POP JUMP JUMPDEST PUSH1 0x0 PUSH1 0x40 MLOAD SWAP1 POP SWAP1 JUMP JUMPDEST PUSH1 0x0 DUP1 REVERT JUMPDEST PUSH1 0x0 DUP1 REVERT JUMPDEST PUSH1 0x0 DUP1 REVERT JUMPDEST PUSH1 0x0 DUP1 REVERT JUMPDEST PUSH1 0x0 PUSH1 0x1F NOT PUSH1 0x1F DUP4 ADD AND SWAP1 POP SWAP2 SWAP1 POP JUMP JUMPDEST PUSH32 0x4E487B7100000000000000000000000000000000000000000000000000000000 PUSH1 0x0 MSTORE PUSH1 0x41 PUSH1 0x4 MSTORE PUSH1 0x24 PUSH1 0x0 REVERT JUMPDEST PUSH2 0x397 DUP3 PUSH2 0x34E JUMP JUMPDEST DUP2 ADD DUP2 DUP2 LT PUSH8 0xFFFFFFFFFFFFFFFF DUP3 GT OR ISZERO PUSH2 0x3B6 JUMPI PUSH2 0x3B5 PUSH2 0x35F JUMP JUMPDEST JUMPDEST DUP1 PUSH1 0x40 MSTORE POP POP POP JUMP JUMPDEST PUSH1 0x0 PUSH2 0x3C9 PUSH2 0x330 JUMP JUMPDEST SWAP1 POP PUSH2 0x3D5 DUP3 DUP3 PUSH2 0x38E JUMP JUMPDEST SWAP2 SWAP1 POP JUMP JUMPDEST PUSH1 0x0 PUSH8 0xFFFFFFFFFFFFFFFF DUP3 GT ISZERO PUSH2 0x3F5 JUMPI PUSH2 0x3F4 PUSH2 0x35F JUMP JUMPDEST JUMPDEST PUSH2 0x3FE DUP3 PUSH2 0x34E JUMP JUMPDEST SWAP1 POP PUSH1 0x20 DUP2 ADD SWAP1 POP SWAP2 SWAP1 POP JUMP JUMPDEST DUP3 DUP2 DUP4 CALLDATACOPY PUSH1 0x0 DUP4 DUP4 ADD MSTORE POP POP POP JUMP JUMPDEST PUSH1 0x0 PUSH2 0x42D PUSH2 0x428 DUP5 PUSH2 0x3DA JUMP JUMPDEST PUSH2 0x3BF JUMP JUMPDEST SWAP1 POP DUP3 DUP2 MSTORE PUSH1 0x20 DUP2 ADD DUP5 DUP5 DUP5 ADD GT ISZERO PUSH2 0x449 JUMPI PUSH2 0x448 PUSH2 0x349 JUMP JUMPDEST JUMPDEST PUSH2 0x454 DUP5 DUP3 DUP6 PUSH2 0x40B JUMP JUMPDEST POP SWAP4 SWAP3 POP POP POP JUMP JUMPDEST PUSH1 0x0 DUP3 PUSH1 0x1F DUP4 ADD SLT PUSH2 0x471 JUMPI PUSH2 0x470 PUSH2 0x344 JUMP JUMPDEST JUMPDEST DUP2 CALLDATALOAD PUSH2 0x481 DUP5 DUP3 PUSH1 0x20 DUP7 ADD PUSH2 0x41A JUMP JUMPDEST SWAP2 POP POP SWAP3 SWAP2 POP POP JUMP JUMPDEST PUSH1 0x0 PUSH1 0x20 DUP3 DUP5 SUB SLT ISZERO PUSH2 0x4A0 JUMPI PUSH2 0x49F PUSH2 0x33A JUMP JUMPDEST JUMPDEST PUSH1 0x0 DUP3 ADD CALLDATALOAD PUSH8 0xFFFFFFFFFFFFFFFF DUP2 GT ISZERO PUSH2 0x4BE JUMPI PUSH2 0x4BD PUSH2 0x33F JUMP JUMPDEST JUMPDEST PUSH2 0x4CA DUP5 DUP3 DUP6 ADD PUSH2 0x45C JUMP JUMPDEST SWAP2 POP POP SWAP3 SWAP2 POP POP JUMP JUMPDEST PUSH1 0x0 DUP2 SWAP1 POP SWAP2 SWAP1 POP JUMP JUMPDEST PUSH2 0x4E6 DUP2 PUSH2 0x4D3 JUMP JUMPDEST DUP3 MSTORE POP POP JUMP JUMPDEST PUSH1 0x0 PUSH1 0x20 DUP3 ADD SWAP1 POP PUSH2 0x501 PUSH1 0x0 DUP4 ADD DUP5 PUSH2 0x4DD JUMP JUMPDEST SWAP3 SWAP2 POP POP JUMP JUMPDEST PUSH1 0x0 DUP1 PUSH1 0x40 DUP4 DUP6 SUB SLT ISZERO PUSH2 0x51E JUMPI PUSH2 0x51D PUSH2 0x33A JUMP JUMPDEST JUMPDEST PUSH1 0x0 DUP4 ADD CALLDATALOAD PUSH8 0xFFFFFFFFFFFFFFFF DUP2 GT ISZERO PUSH2 0x53C JUMPI PUSH2 0x53B PUSH2 0x33F JUMP JUMPDEST JUMPDEST PUSH2 0x548 DUP6 DUP3 DUP7 ADD PUSH2 0x45C JUMP JUMPDEST SWAP3 POP POP PUSH1 0x20 DUP4 ADD CALLDATALOAD PUSH8 0xFFFFFFFFFFFFFFFF DUP2 GT ISZERO PUSH2 0x569 JUMPI PUSH2 0x568 PUSH2 0x33F JUMP JUMPDEST JUMPDEST PUSH2 0x575 DUP6 DUP3 DUP7 ADD PUSH2 0x45C JUMP JUMPDEST SWAP2 POP POP SWAP3 POP SWAP3 SWAP1 POP JUMP JUMPDEST PUSH1 0x0 DUP2 ISZERO ISZERO SWAP1 POP SWAP2 SWAP1 POP JUMP JUMPDEST PUSH2 0x594 DUP2 PUSH2 0x57F JUMP JUMPDEST DUP3 MSTORE POP POP JUMP JUMPDEST PUSH1 0x0 PUSH1 0x20 DUP3 ADD SWAP1 POP PUSH2 0x5AF PUSH1 0x0 DUP4 ADD DUP5 PUSH2 0x58B JUMP JUMPDEST SWAP3 SWAP2 POP POP JUMP JUMPDEST PUSH1 0x0 DUP2 SWAP1 POP SWAP2 SWAP1 POP JUMP JUMPDEST PUSH2 0x5C8 DUP2 PUSH2 0x5B5 JUMP JUMPDEST DUP2 EQ PUSH2 0x5D3 JUMPI PUSH1 0x0 DUP1 REVERT JUMPDEST POP JUMP JUMPDEST PUSH1 0x0 DUP2 CALLDATALOAD SWAP1 POP PUSH2 0x5E5 DUP2 PUSH2 0x5BF JUMP JUMPDEST SWAP3 SWAP2 POP POP JUMP JUMPDEST PUSH1 0x0 PUSH1 0x20 DUP3 DUP5 SUB SLT ISZERO PUSH2 0x601 JUMPI PUSH2 0x600 PUSH2 0x33A JUMP JUMPDEST JUMPDEST PUSH1 0x0 PUSH2 0x60F DUP5 DUP3 DUP6 ADD PUSH2 0x5D6 JUMP JUMPDEST SWAP2 POP POP SWAP3 SWAP2 POP POP JUMP JUMPDEST PUSH2 0x621 DUP2 PUSH2 0x4D3 JUMP JUMPDEST DUP2 EQ PUSH2 0x62C JUMPI PUSH1 0x0 DUP1 REVERT JUMPDEST POP JUMP JUMPDEST PUSH1 0x0 DUP2 CALLDATALOAD SWAP1 POP PUSH2 0x63E DUP2 PUSH2 0x618 JUMP JUMPDEST SWAP3 SWAP2 POP POP JUMP JUMPDEST PUSH1 0x0 DUP2 SWAP1 POP SWAP2 SWAP1 POP JUMP JUMPDEST PUSH2 0x657 DUP2 PUSH2 0x644 JUMP JUMPDEST DUP2 EQ PUSH2 0x662 JUMPI PUSH1 0x0 DUP1 REVERT JUMPDEST POP JUMP JUMPDEST PUSH1 0x0 DUP2 CALLDATALOAD SWAP1 POP PUSH2 0x674 DUP2 PUSH2 0x64E JUMP JUMPDEST SWAP3 SWAP2 POP POP JUMP JUMPDEST PUSH1 0x0 DUP1 PUSH1 0x0 DUP1 PUSH1 0x80 DUP6 DUP8 SUB SLT ISZERO PUSH2 0x694 JUMPI PUSH2 0x693 PUSH2 0x33A JUMP JUMPDEST JUMPDEST PUSH1 0x0 PUSH2 0x6A2 DUP8 DUP3 DUP9 ADD PUSH2 0x62F JUMP JUMPDEST SWAP5 POP POP PUSH1 0x20 PUSH2 0x6B3 DUP8 DUP3 DUP9 ADD PUSH2 0x62F JUMP JUMPDEST SWAP4 POP POP PUSH1 0x40 PUSH2 0x6C4 DUP8 DUP3 DUP9 ADD PUSH2 0x62F JUMP JUMPDEST SWAP3 POP POP PUSH1 0x60 PUSH2 0x6D5 DUP8 DUP3 DUP9 ADD PUSH2 0x665 JUMP JUMPDEST SWAP2 POP POP SWAP3 SWAP6 SWAP2 SWAP5 POP SWAP3 POP JUMP JUMPDEST PUSH1 0x0 PUSH1 0x20 DUP3 DUP5 SUB SLT ISZERO PUSH2 0x6F7 JUMPI PUSH2 0x6F6 PUSH2 0x33A JUMP JUMPDEST JUMPDEST PUSH1 0x0 PUSH2 0x705 DUP5 DUP3 DUP6 ADD PUSH2 0x665 JUMP JUMPDEST SWAP2 POP POP SWAP3 SWAP2 POP POP JUMP JUMPDEST PUSH1 0x0 DUP2 MLOAD SWAP1 POP SWAP2 SWAP1 POP JUMP JUMPDEST PUSH1 0x0 DUP2 SWAP1 POP SWAP3 SWAP2 POP POP JUMP JUMPDEST PUSH1 0x0 JUMPDEST DUP4 DUP2 LT ISZERO PUSH2 0x742 JUMPI DUP1 DUP3 ADD MLOAD DUP2 DUP5 ADD MSTORE PUSH1 0x20 DUP2 ADD SWAP1 POP PUSH2 0x727 JUMP JUMPDEST PUSH1 0x0 DUP5 DUP5 ADD MSTORE POP POP POP POP JUMP JUMPDEST PUSH1 0x0 PUSH2 0x759 DUP3 PUSH2 0x70E JUMP JUMPDEST PUSH2 0x763 DUP2 DUP6 PUSH2 0x719 JUMP JUMPDEST SWAP4 POP PUSH2 0x773 DUP2 DUP6 PUSH1 0x20 DUP7 ADD PUSH2 0x724 JUMP JUMPDEST DUP1 DUP5 ADD SWAP2 POP POP SWAP3 SWAP2 POP POP JUMP JUMPDEST PUSH1 0x0 PUSH2 0x78B DUP3 DUP5 PUSH2 0x74E JUMP JUMPDEST SWAP2 POP DUP2 SWAP1 POP SWAP3 SWAP2 POP POP JUMP JUMPDEST PUSH32 0x4E487B7100000000000000000000000000000000000000000000000000000000 PUSH1 0x0 MSTORE PUSH1 0x32 PUSH1 0x4 MSTORE PUSH1 0x24 PUSH1 0x0 REVERT JUMPDEST PUSH32 0x4E487B7100000000000000000000000000000000000000000000000000000000 PUSH1 0x0 MSTORE PUSH1 0x11 PUSH1 0x4 MSTORE PUSH1 0x24 PUSH1 0x0 REVERT JUMPDEST PUSH1 0x0 PUSH2 0x7FF DUP3 PUSH2 0x4D3 JUMP JUMPDEST SWAP2 POP PUSH32 0xFFFFFFFFFFFFFFFFFFFFFFFFFFFFFFFFFFFFFFFFFFFFFFFFFFFFFFFFFFFFFFFF DUP3 SUB PUSH2 0x831 JUMPI PUSH2 0x830 PUSH2 0x7C5 JUMP JUMPDEST JUMPDEST PUSH1 0x1 DUP3 ADD SWAP1 POP SWAP2 SWAP1 POP JUMP INVALID LOG2 PUSH5 0x6970667358 0x22 SLT KECCAK256 ADDRESS DUP6 0xAD SIGNEXTEND 0xC 0xDE 0xB0 PUSH24 0x5B993CE27EA8B0436339982FABF6412A679EDB6C35CC42E8 PUSH5 0x736F6C6343 STOP ADDMOD GT STOP CALLER "},"methodIdentifiers":{"checkOverlapEventTimeline(uint256,uint256,uint256,Calendar.EventSchedule[] storage)":"a798e494","compareString(string,string)":"75b83187","getLengthOfEventSchedule(Calendar.EventSchedule[] storage)":"e2c94c05","getLengthOfEventStore(Calendar.EventStore[] storage)":"8d00e5ff","getLengthOfString(string)":"4708f271"}},"storageLayout":{"storage":[],"types":null}}}}