{
  "_format": "hh-sol-artifact-1",
  "contractName": "Library",
  "sourceName": "contracts/lib/Library.sol",
  "abi": [
    {
      "inputs": [
        {
          "internalType": "string",
          "name": "a",
          "type": "string"
        },
        {
          "internalType": "string",
          "name": "b",
          "type": "string"
        }
      ],
      "name": "compareString",
      "outputs": [
        {
          "internalType": "bool",
          "name": "",
          "type": "bool"
        }
      ],
      "stateMutability": "pure",
      "type": "function"
    },
    {
      "inputs": [
        {
          "internalType": "string",
          "name": "str",
          "type": "string"
        }
      ],
      "name": "getLengthOfString",
      "outputs": [
        {
          "internalType": "uint256",
          "name": "",
          "type": "uint256"
        }
      ],
      "stateMutability": "pure",
      "type": "function"
    }
  ],
  "bytecode": "0x610872610053600b82828239805160001a607314610046577f4e487b7100000000000000000000000000000000000000000000000000000000600052600060045260246000fd5b30600052607381538281f3fe73000000000000000000000000000000000000000030146080604052600436106100615760003560e01c80634708f2711461006657806375b83187146100965780638d00e5ff146100c6578063a798e494146100f6578063e2c94c0514610126575b600080fd5b610080600480360381019061007b919061048a565b610156565b60405161008d91906104ec565b60405180910390f35b6100b060048036038101906100ab9190610507565b610166565b6040516100bd919061059a565b60405180910390f35b6100e060048036038101906100db91906105eb565b6101bf565b6040516100ed91906104ec565b60405180910390f35b610110600480360381019061010b919061067a565b6101cd565b60405161011d919061059a565b60405180910390f35b610140600480360381019061013b91906106e1565b610322565b60405161014d91906104ec565b60405180910390f35b6000808290508051915050919050565b600081604051602001610179919061077f565b60405160208183030381529060405280519060200120836040516020016101a0919061077f565b6040516020818303038152906040528051906020012014905092915050565b600081805490509050919050565b6000806001905060005b868110156103155760008482815481106101f4576101f3610796565b5b9060005260206000209060040201600101549050600085838154811061021d5761021c610796565b5b9060005260206000209060040201600201549050878210801561023f57508681115b806102545750878211801561025357508681105b5b806102695750878214801561026857508681145b5b8061027e5750878210801561027d57508681145b5b806102935750878211801561029257508681145b5b806102a8575087821480156102a757508681105b5b806102bd575087821480156102bc57508681115b5b806102dd575087821080156102d157508781115b80156102dc57508681105b5b806102fd575086821080156102f157508681115b80156102fc57508782115b5b1593505050808061030d906107f4565b9150506101d7565b5080915050949350505050565b600081805490509050919050565b6000604051905090565b600080fd5b600080fd5b600080fd5b600080fd5b6000601f19601f8301169050919050565b7f4e487b7100000000000000000000000000000000000000000000000000000000600052604160045260246000fd5b6103978261034e565b810181811067ffffffffffffffff821117156103b6576103b561035f565b5b80604052505050565b60006103c9610330565b90506103d5828261038e565b919050565b600067ffffffffffffffff8211156103f5576103f461035f565b5b6103fe8261034e565b9050602081019050919050565b82818337600083830152505050565b600061042d610428846103da565b6103bf565b90508281526020810184848401111561044957610448610349565b5b61045484828561040b565b509392505050565b600082601f83011261047157610470610344565b5b813561048184826020860161041a565b91505092915050565b6000602082840312156104a05761049f61033a565b5b600082013567ffffffffffffffff8111156104be576104bd61033f565b5b6104ca8482850161045c565b91505092915050565b6000819050919050565b6104e6816104d3565b82525050565b600060208201905061050160008301846104dd565b92915050565b6000806040838503121561051e5761051d61033a565b5b600083013567ffffffffffffffff81111561053c5761053b61033f565b5b6105488582860161045c565b925050602083013567ffffffffffffffff8111156105695761056861033f565b5b6105758582860161045c565b9150509250929050565b60008115159050919050565b6105948161057f565b82525050565b60006020820190506105af600083018461058b565b92915050565b6000819050919050565b6105c8816105b5565b81146105d357600080fd5b50565b6000813590506105e5816105bf565b92915050565b6000602082840312156106015761060061033a565b5b600061060f848285016105d6565b91505092915050565b610621816104d3565b811461062c57600080fd5b50565b60008135905061063e81610618565b92915050565b6000819050919050565b61065781610644565b811461066257600080fd5b50565b6000813590506106748161064e565b92915050565b600080600080608085870312156106945761069361033a565b5b60006106a28782880161062f565b94505060206106b38782880161062f565b93505060406106c48782880161062f565b92505060606106d587828801610665565b91505092959194509250565b6000602082840312156106f7576106f661033a565b5b600061070584828501610665565b91505092915050565b600081519050919050565b600081905092915050565b60005b83811015610742578082015181840152602081019050610727565b60008484015250505050565b60006107598261070e565b6107638185610719565b9350610773818560208601610724565b80840191505092915050565b600061078b828461074e565b915081905092915050565b7f4e487b7100000000000000000000000000000000000000000000000000000000600052603260045260246000fd5b7f4e487b7100000000000000000000000000000000000000000000000000000000600052601160045260246000fd5b60006107ff826104d3565b91507fffffffffffffffffffffffffffffffffffffffffffffffffffffffffffffffff8203610831576108306107c5565b5b60018201905091905056fea26469706673582212203085ad0b0cdeb0775b993ce27ea8b0436339982fabf6412a679edb6c35cc42e864736f6c63430008110033",
  "linkReferences": {},
  "deployedLinkReferences": {}
}