{
  "_format": "hh-sol-artifact-1",
  "contractName": "Calendar",
  "sourceName": "contracts/Calendar.sol",
  "abi": [
    {
      "inputs": [
        {
          "internalType": "uint256",
          "name": "id",
          "type": "uint256"
        },
        {
          "internalType": "uint256",
          "name": "start_event",
          "type": "uint256"
        },
        {
          "internalType": "uint256",
          "name": "end_event",
          "type": "uint256"
        },
        {
          "internalType": "uint256",
          "name": "store_index",
          "type": "uint256"
        },
        {
          "internalType": "string",
          "name": "store_title",
          "type": "string"
        },
        {
          "internalType": "string",
          "name": "title_event",
          "type": "string"
        },
        {
          "internalType": "string",
          "name": "month_range",
          "type": "string"
        }
      ],
      "name": "addEventSchedule",
      "outputs": [
        {
          "internalType": "string",
          "name": "",
          "type": "string"
        }
      ],
      "stateMutability": "nonpayable",
      "type": "function"
    },
    {
      "inputs": [
        {
          "internalType": "string",
          "name": "title",
          "type": "string"
        }
      ],
      "name": "createEventStore",
      "outputs": [
        {
          "internalType": "string",
          "name": "",
          "type": "string"
        }
      ],
      "stateMutability": "nonpayable",
      "type": "function"
    },
    {
      "inputs": [
        {
          "internalType": "uint256",
          "name": "store_index",
          "type": "uint256"
        },
        {
          "internalType": "uint256",
          "name": "event_id",
          "type": "uint256"
        },
        {
          "internalType": "string",
          "name": "month_range",
          "type": "string"
        }
      ],
      "name": "deleteEventSchedule",
      "outputs": [
        {
          "internalType": "string",
          "name": "",
          "type": "string"
        }
      ],
      "stateMutability": "nonpayable",
      "type": "function"
    },
    {
      "inputs": [
        {
          "internalType": "uint256",
          "name": "store_index",
          "type": "uint256"
        },
        {
          "internalType": "string",
          "name": "month_range",
          "type": "string"
        }
      ],
      "name": "deleteEventScheduleMonth",
      "outputs": [
        {
          "internalType": "string",
          "name": "",
          "type": "string"
        }
      ],
      "stateMutability": "nonpayable",
      "type": "function"
    },
    {
      "inputs": [
        {
          "internalType": "uint256",
          "name": "store_index",
          "type": "uint256"
        },
        {
          "internalType": "uint256",
          "name": "event_id",
          "type": "uint256"
        },
        {
          "internalType": "uint256",
          "name": "start_event",
          "type": "uint256"
        },
        {
          "internalType": "uint256",
          "name": "end_event",
          "type": "uint256"
        },
        {
          "internalType": "string",
          "name": "month_range",
          "type": "string"
        },
        {
          "internalType": "string",
          "name": "title",
          "type": "string"
        }
      ],
      "name": "editEventSchedule",
      "outputs": [
        {
          "internalType": "string",
          "name": "",
          "type": "string"
        }
      ],
      "stateMutability": "nonpayable",
      "type": "function"
    },
    {
      "inputs": [
        {
          "internalType": "uint256",
          "name": "store_index",
          "type": "uint256"
        },
        {
          "internalType": "string",
          "name": "new_store_title",
          "type": "string"
        }
      ],
      "name": "editEventStoreTitle",
      "outputs": [
        {
          "internalType": "string",
          "name": "",
          "type": "string"
        }
      ],
      "stateMutability": "nonpayable",
      "type": "function"
    },
    {
      "inputs": [
        {
          "internalType": "uint256",
          "name": "store_index",
          "type": "uint256"
        },
        {
          "internalType": "string",
          "name": "month_range",
          "type": "string"
        }
      ],
      "name": "getEventSchedule",
      "outputs": [
        {
          "components": [
            {
              "internalType": "string",
              "name": "title",
              "type": "string"
            },
            {
              "internalType": "address[]",
              "name": "accounts",
              "type": "address[]"
            },
            {
              "components": [
                {
                  "internalType": "uint256",
                  "name": "id",
                  "type": "uint256"
                },
                {
                  "internalType": "uint256",
                  "name": "start_event",
                  "type": "uint256"
                },
                {
                  "internalType": "uint256",
                  "name": "end_event",
                  "type": "uint256"
                },
                {
                  "internalType": "string",
                  "name": "title",
                  "type": "string"
                }
              ],
              "internalType": "struct Calendar.EventSchedule[]",
              "name": "eventSchedule",
              "type": "tuple[]"
            }
          ],
          "internalType": "struct Calendar.EventStoreRetrived",
          "name": "eventStoreRetrived",
          "type": "tuple"
        }
      ],
      "stateMutability": "view",
      "type": "function"
    },
    {
      "inputs": [],
      "name": "getEventTitle",
      "outputs": [
        {
          "components": [
            {
              "internalType": "string",
              "name": "title",
              "type": "string"
            },
            {
              "internalType": "uint256",
              "name": "parctitipationAmount",
              "type": "uint256"
            },
            {
              "internalType": "address[]",
              "name": "parctitipationAccount",
              "type": "address[]"
            },
            {
              "internalType": "bool",
              "name": "del",
              "type": "bool"
            }
          ],
          "internalType": "struct Calendar.EventTitle[]",
          "name": "eventTitles",
          "type": "tuple[]"
        }
      ],
      "stateMutability": "view",
      "type": "function"
    },
    {
      "inputs": [
        {
          "internalType": "uint256",
          "name": "store_index",
          "type": "uint256"
        },
        {
          "internalType": "string",
          "name": "store_title",
          "type": "string"
        },
        {
          "internalType": "string",
          "name": "month_range",
          "type": "string"
        }
      ],
      "name": "getParticipationStore",
      "outputs": [
        {
          "components": [
            {
              "internalType": "string",
              "name": "title",
              "type": "string"
            },
            {
              "internalType": "address[]",
              "name": "accounts",
              "type": "address[]"
            },
            {
              "components": [
                {
                  "internalType": "uint256",
                  "name": "id",
                  "type": "uint256"
                },
                {
                  "internalType": "uint256",
                  "name": "start_event",
                  "type": "uint256"
                },
                {
                  "internalType": "uint256",
                  "name": "end_event",
                  "type": "uint256"
                },
                {
                  "internalType": "string",
                  "name": "title",
                  "type": "string"
                }
              ],
              "internalType": "struct Calendar.EventSchedule[]",
              "name": "eventSchedule",
              "type": "tuple[]"
            }
          ],
          "internalType": "struct Calendar.EventStoreRetrived",
          "name": "",
          "type": "tuple"
        }
      ],
      "stateMutability": "view",
      "type": "function"
    },
    {
      "inputs": [],
      "name": "getParticipationTitle",
      "outputs": [
        {
          "components": [
            {
              "internalType": "string",
              "name": "title",
              "type": "string"
            },
            {
              "internalType": "uint256",
              "name": "store_index",
              "type": "uint256"
            },
            {
              "internalType": "address",
              "name": "createdBy",
              "type": "address"
            }
          ],
          "internalType": "struct Calendar.ParticipationStore[]",
          "name": "",
          "type": "tuple[]"
        }
      ],
      "stateMutability": "view",
      "type": "function"
    },
    {
      "inputs": [
        {
          "internalType": "uint256",
          "name": "store_index",
          "type": "uint256"
        },
        {
          "internalType": "string",
          "name": "title",
          "type": "string"
        },
        {
          "internalType": "address",
          "name": "invitation_account",
          "type": "address"
        }
      ],
      "name": "inviteParticipation",
      "outputs": [
        {
          "internalType": "string",
          "name": "",
          "type": "string"
        }
      ],
      "stateMutability": "nonpayable",
      "type": "function"
    },
    {
      "inputs": [
        {
          "internalType": "uint256",
          "name": "store_index",
          "type": "uint256"
        },
        {
          "internalType": "string",
          "name": "store_title",
          "type": "string"
        }
      ],
      "name": "leaveParticipationEvent",
      "outputs": [
        {
          "internalType": "string",
          "name": "",
          "type": "string"
        }
      ],
      "stateMutability": "nonpayable",
      "type": "function"
    },
    {
      "inputs": [
        {
          "internalType": "uint256",
          "name": "store_index",
          "type": "uint256"
        },
        {
          "internalType": "address",
          "name": "participationAccount",
          "type": "address"
        }
      ],
      "name": "removeAccountParticipation",
      "outputs": [
        {
          "internalType": "string",
          "name": "",
          "type": "string"
        }
      ],
      "stateMutability": "nonpayable",
      "type": "function"
    },
    {
      "inputs": [
        {
          "internalType": "uint256",
          "name": "store_index",
          "type": "uint256"
        }
      ],
      "name": "removeAllAccountParticipations",
      "outputs": [
        {
          "internalType": "string",
          "name": "",
          "type": "string"
        }
      ],
      "stateMutability": "nonpayable",
      "type": "function"
    }
  ],
  "bytecode": "0x608060405234801561001057600080fd5b50614f07806100206000396000f3fe608060405234801561001057600080fd5b50600436106100ea5760003560e01c8063738a2ddb1161008c5780638dfe4a99116100665780638dfe4a99146102bd578063929cc29e146102ed578063b36000c61461031d578063f8a7250b1461034d576100ea565b8063738a2ddb1461022d57806376e641501461025d5780637ff43e981461028d576100ea565b80634545746f116100c85780634545746f1461016d5780635ac314221461019d57806363721d69146101cd5780636566251c146101fd576100ea565b80630a1a4bf8146100ef5780631b573d561461011f5780633410b1671461013d575b600080fd5b61010960048036038101906101049190613a2c565b61036b565b6040516101169190613b1a565b60405180910390f35b6101276104b6565b6040516101349190613d9a565b60405180910390f35b61015760048036038101906101529190613dbc565b61076d565b6040516101649190613f9b565b60405180910390f35b61018760048036038101906101829190613fbd565b610788565b6040516101949190613b1a565b60405180910390f35b6101b760048036038101906101b29190614006565b610aba565b6040516101c49190613f9b565b60405180910390f35b6101e760048036038101906101e29190613dbc565b610ae5565b6040516101f49190613b1a565b60405180910390f35b61021760048036038101906102129190614091565b610b9d565b6040516102249190613b1a565b60405180910390f35b61024760048036038101906102429190614156565b610f60565b6040516102549190613b1a565b60405180910390f35b610277600480360381019061027291906141c5565b611394565b6040516102849190613b1a565b60405180910390f35b6102a760048036038101906102a29190613dbc565b611aaa565b6040516102b49190613b1a565b60405180910390f35b6102d760048036038101906102d29190614205565b611b0d565b6040516102e49190613b1a565b60405180910390f35b61030760048036038101906103029190613dbc565b611ddc565b6040516103149190613b1a565b60405180910390f35b610337600480360381019061033291906142fb565b611eea565b6040516103449190613b1a565b60405180910390f35b610355612541565b604051610362919061443a565b60405180910390f35b606060008060003373ffffffffffffffffffffffffffffffffffffffff1673ffffffffffffffffffffffffffffffffffffffff1681526020019081526020016000206000019050600073__$585528fa2d4d541c3e6777d663634a359d$__638d00e5ff836040518263ffffffff1660e01b81526004016103eb9190614463565b602060405180830381865af4158015610408573d6000803e3d6000fd5b505050506040513d601f19601f8201168201806040525081019061042c9190614493565b905060018161043b91906144ef565b86111561047d576040517f08c379a00000000000000000000000000000000000000000000000000000000081526004016104749061456f565b60405180910390fd5b61048786856126d1565b61049286868661279a565b604051806060016040528060258152602001614e1b60259139925050509392505050565b606060008060003373ffffffffffffffffffffffffffffffffffffffff1673ffffffffffffffffffffffffffffffffffffffff16815260200190815260200160002060000190506000818054905090508067ffffffffffffffff8111156105205761051f6138a3565b5b60405190808252806020026020018201604052801561055957816020015b6105466136a9565b81526020019060019003908161053e5790505b50925060005b818110156107675760405180608001604052808483815481106105855761058461458f565b5b906000526020600020906004020160000180546105a1906145ed565b80601f01602080910402602001604051908101604052809291908181526020018280546105cd906145ed565b801561061a5780601f106105ef5761010080835404028352916020019161061a565b820191906000526020600020905b8154815290600101906020018083116105fd57829003601f168201915b505050505081526020018483815481106106375761063661458f565b5b90600052602060002090600402016001018054905081526020018483815481106106645761066361458f565b5b90600052602060002090600402016001018054806020026020016040519081016040528092919081815260200182805480156106f557602002820191906000526020600020905b8160009054906101000a900473ffffffffffffffffffffffffffffffffffffffff1673ffffffffffffffffffffffffffffffffffffffff16815260200190600101908083116106ab575b505050505081526020018483815481106107125761071161458f565b5b906000526020600020906004020160020160009054906101000a900460ff1615158152508482815181106107495761074861458f565b5b6020026020010181905250808061075f9061461e565b91505061055f565b50505090565b6107756136d3565b6107808383336128a3565b905092915050565b606060008060003373ffffffffffffffffffffffffffffffffffffffff1673ffffffffffffffffffffffffffffffffffffffff1681526020019081526020016000206000019050600073__$585528fa2d4d541c3e6777d663634a359d$__638d00e5ff836040518263ffffffff1660e01b81526004016108089190614463565b602060405180830381865af4158015610825573d6000803e3d6000fd5b505050506040513d601f19601f820116820180604052508101906108499190614493565b9050600581111561088f576040517f08c379a0000000000000000000000000000000000000000000000000000000008152600401610886906146b2565b60405180910390fd5b600073__$585528fa2d4d541c3e6777d663634a359d$__634708f271866040518263ffffffff1660e01b81526004016108c8919061471c565b602060405180830381865af41580156108e5573d6000803e3d6000fd5b505050506040513d601f19601f820116820180604052508101906109099190614493565b11610949576040517f08c379a00000000000000000000000000000000000000000000000000000000081526004016109409061478a565b60405180910390fd5b60005b81811015610a445773__$585528fa2d4d541c3e6777d663634a359d$__6375b831878483815481106109815761098061458f565b5b9060005260206000209060040201600001876040518363ffffffff1660e01b81526004016109b0929190614843565b602060405180830381865af41580156109cd573d6000803e3d6000fd5b505050506040513d601f19601f820116820180604052508101906109f191906148a6565b15610a31576040517f08c379a0000000000000000000000000000000000000000000000000000000008152600401610a2890614945565b60405180910390fd5b8080610a3c9061461e565b91505061094c565b50600082600181600181540180825580915050039060005260206000209060040201905084816000019081610a799190614afc565b5060008160020160006101000a81548160ff021916908315150217905550604051806060016040528060238152602001614eaf602391399350505050919050565b610ac26136d3565b6000610ace8585612b7e565b9050610adb8584836128a3565b9150509392505050565b606060008060003373ffffffffffffffffffffffffffffffffffffffff1673ffffffffffffffffffffffffffffffffffffffff1681526020019081526020016000206000018481548110610b3c57610b3b61458f565b5b9060005260206000209060040201905082816000019081610b5d9190614afc565b506040518060400160405280601d81526020017f45646974206576656e742073746f7265207375636365737366756c6c7900000081525091505092915050565b606060008060003373ffffffffffffffffffffffffffffffffffffffff1673ffffffffffffffffffffffffffffffffffffffff168152602001908152602001600020600001905060008060003373ffffffffffffffffffffffffffffffffffffffff1673ffffffffffffffffffffffffffffffffffffffff1681526020019081526020016000206000018981548110610c3957610c3861458f565b5b90600052602060002090600402019050600073__$585528fa2d4d541c3e6777d663634a359d$__638d00e5ff846040518263ffffffff1660e01b8152600401610c829190614463565b602060405180830381865af4158015610c9f573d6000803e3d6000fd5b505050506040513d601f19601f82011682018060405250810190610cc39190614493565b90506000600182610cd491906144ef565b9050808b1115610d19576040517f08c379a0000000000000000000000000000000000000000000000000000000008152600401610d109061456f565b60405180910390fd5b60008360030188604051610d2d9190614c0a565b9081526020016040518091039020905060008180549050905060005b81811015610f17576000838281548110610d6657610d6561458f565b5b906000526020600020906004020190508d816000015403610f0357600073__$585528fa2d4d541c3e6777d663634a359d$__634708f2718c6040518263ffffffff1660e01b8152600401610dba919061471c565b602060405180830381865af4158015610dd7573d6000803e3d6000fd5b505050506040513d601f19601f82011682018060405250810190610dfb9190614493565b11610eb257838281548110610e1357610e1261458f565b5b90600052602060002090600402016003018054610e2f906145ed565b80601f0160208091040260200160405190810160405280929190818152602001828054610e5b906145ed565b8015610ea85780601f10610e7d57610100808354040283529160200191610ea8565b820191906000526020600020905b815481529060010190602001808311610e8b57829003601f168201915b5050505050610eb4565b895b816003019081610ec49190614afc565b5060008d11610ed7578060010154610ed9565b8c5b816001018190555060008c11610ef3578060020154610ef5565b8b5b816002018190555050610f17565b508080610f0f9061461e565b915050610d49565b506040518060400160405280602081526020017f45646974206576656e74207363686564756c65207375636365737366756c6c7981525096505050505050509695505050505050565b606060008060003373ffffffffffffffffffffffffffffffffffffffff1673ffffffffffffffffffffffffffffffffffffffff1681526020019081526020016000206000019050600073__$585528fa2d4d541c3e6777d663634a359d$__638d00e5ff836040518263ffffffff1660e01b8152600401610fe09190614463565b602060405180830381865af4158015610ffd573d6000803e3d6000fd5b505050506040513d601f19601f820116820180604052508101906110219190614493565b905060018161103091906144ef565b861115611072576040517f08c379a00000000000000000000000000000000000000000000000000000000081526004016110699061456f565b60405180910390fd5b60008287815481106110875761108661458f565b5b90600052602060002090600402019050600081600301866040516110ab9190614c0a565b9081526020016040518091039020905060005b818054905081101561134f57878282815481106110de576110dd61458f565b5b9060005260206000209060040201600001540361133c5760006001838054905061110891906144ef565b90508082146112c45760008383815481106111265761112561458f565b5b906000526020600020906004020160405180608001604052908160008201548152602001600182015481526020016002820154815260200160038201805461116d906145ed565b80601f0160208091040260200160405190810160405280929190818152602001828054611199906145ed565b80156111e65780601f106111bb576101008083540402835291602001916111e6565b820191906000526020600020905b8154815290600101906020018083116111c957829003601f168201915b50505050508152505090508382815481106112045761120361458f565b5b90600052602060002090600402018484815481106112255761122461458f565b5b9060005260206000209060040201600082015481600001556001820154816001015560028201548160020155600382018160030190816112659190614c37565b509050508084838154811061127d5761127c61458f565b5b906000526020600020906004020160008201518160000155602082015181600101556040820151816002015560608201518160030190816112be9190614afc565b50905050505b828054806112d5576112d4614d1f565b5b60019003818190600052602060002090600402016000808201600090556001820160009055600282016000905560038201600061131291906136f4565b50509055604051806060016040528060238152602001614e6160239139965050505050505061138d565b80806113479061461e565b9150506110be565b506040518060400160405280601881526020017f4576656e74207363686564756c65206e6f7420666f756e6400000000000000008152509450505050505b9392505050565b606060008060003373ffffffffffffffffffffffffffffffffffffffff1673ffffffffffffffffffffffffffffffffffffffff168152602001908152602001600020600001905060008185815481106113f0576113ef61458f565b5b9060005260206000209060040201600101905060008180549050905060008260018361141c91906144ef565b8154811061142d5761142c61458f565b5b9060005260206000200160009054906101000a900473ffffffffffffffffffffffffffffffffffffffff1690508073ffffffffffffffffffffffffffffffffffffffff168673ffffffffffffffffffffffffffffffffffffffff16036114d8578280548061149e5761149d614d1f565b5b6001900381819060005260206000200160006101000a81549073ffffffffffffffffffffffffffffffffffffffff02191690559055611677565b60005b82811015611675578673ffffffffffffffffffffffffffffffffffffffff1684828154811061150d5761150c61458f565b5b9060005260206000200160009054906101000a900473ffffffffffffffffffffffffffffffffffffffff1673ffffffffffffffffffffffffffffffffffffffff160361166257818482815481106115675761156661458f565b5b9060005260206000200160006101000a81548173ffffffffffffffffffffffffffffffffffffffff021916908373ffffffffffffffffffffffffffffffffffffffff16021790555086846001856115be91906144ef565b815481106115cf576115ce61458f565b5b9060005260206000200160006101000a81548173ffffffffffffffffffffffffffffffffffffffff021916908373ffffffffffffffffffffffffffffffffffffffff1602179055508380548061162857611627614d1f565b5b6001900381819060005260206000200160006101000a81549073ffffffffffffffffffffffffffffffffffffffff02191690559055611675565b808061166d9061461e565b9150506114db565b505b60008060008873ffffffffffffffffffffffffffffffffffffffff1673ffffffffffffffffffffffffffffffffffffffff16815260200190815260200160002060010190506000818054905090506000826001836116d591906144ef565b815481106116e6576116e561458f565b5b9060005260206000209060030201905089816001015414801561175857503373ffffffffffffffffffffffffffffffffffffffff168160020160009054906101000a900473ffffffffffffffffffffffffffffffffffffffff1673ffffffffffffffffffffffffffffffffffffffff16145b156117cb578280548061176e5761176d614d1f565b5b60019003818190600052602060002090600302016000808201600061179391906136f4565b60018201600090556002820160006101000a81549073ffffffffffffffffffffffffffffffffffffffff021916905550509055611a82565b60005b82811015611a80578a8482815481106117ea576117e961458f565b5b90600052602060002090600302016001015414801561187857503373ffffffffffffffffffffffffffffffffffffffff1684828154811061182e5761182d61458f565b5b906000526020600020906003020160020160009054906101000a900473ffffffffffffffffffffffffffffffffffffffff1673ffffffffffffffffffffffffffffffffffffffff16145b15611a6d578381815481106118905761188f61458f565b5b9060005260206000209060030201846001856118ac91906144ef565b815481106118bd576118bc61458f565b5b9060005260206000209060030201600082018160000190816118df9190614c37565b50600182015481600101556002820160009054906101000a900473ffffffffffffffffffffffffffffffffffffffff168160020160006101000a81548173ffffffffffffffffffffffffffffffffffffffff021916908373ffffffffffffffffffffffffffffffffffffffff160217905550905050818482815481106119685761196761458f565b5b90600052602060002090600302016000820181600001908161198a9190614c37565b50600182015481600101556002820160009054906101000a900473ffffffffffffffffffffffffffffffffffffffff168160020160006101000a81548173ffffffffffffffffffffffffffffffffffffffff021916908373ffffffffffffffffffffffffffffffffffffffff16021790555090505083805480611a1057611a0f614d1f565b5b600190038181906000526020600020906003020160008082016000611a3591906136f4565b60018201600090556002820160006101000a81549073ffffffffffffffffffffffffffffffffffffffff021916905550509055611a80565b8080611a789061461e565b9150506117ce565b505b604051806060016040528060298152602001614df26029913997505050505050505092915050565b60606000611ab88484612b7e565b9050611ac48482612e21565b611ace838261309c565b6040518060400160405280601e81526020017f4c65617665206576656e742073746f7265207375636365737366756c6c79000081525091505092915050565b606060008060003373ffffffffffffffffffffffffffffffffffffffff1673ffffffffffffffffffffffffffffffffffffffff16815260200190815260200160002060000190506000818781548110611b6957611b6861458f565b5b906000526020600020906004020160030184604051611b889190614c0a565b90815260200160405180910390209050600073__$585528fa2d4d541c3e6777d663634a359d$__638d00e5ff846040518263ffffffff1660e01b8152600401611bd19190614463565b602060405180830381865af4158015611bee573d6000803e3d6000fd5b505050506040513d601f19601f82011682018060405250810190611c129190614493565b905060005b81811015611d0e5773__$585528fa2d4d541c3e6777d663634a359d$__6375b83187858381548110611c4c57611c4b61458f565b5b90600052602060002090600402016000018a6040518363ffffffff1660e01b8152600401611c7b929190614843565b602060405180830381865af4158015611c98573d6000803e3d6000fd5b505050506040513d601f19601f82011682018060405250810190611cbc91906148a6565b611cfb576040517f08c379a0000000000000000000000000000000000000000000000000000000008152600401611cf290614d9a565b60405180910390fd5b8080611d069061461e565b915050611c17565b50600060405180608001604052808d81526020018c81526020018b8152602001888152509050828190806001815401808255809150506001900390600052602060002090600402016000909190919091506000820151816000015560208201518160010155604082015181600201556060820151816003019081611d929190614afc565b5050506040518060400160405280602081526020017f416464206e6577206576656e742073746f7265207375636365737366756c6c79815250945050505050979650505050505050565b606060008060003373ffffffffffffffffffffffffffffffffffffffff1673ffffffffffffffffffffffffffffffffffffffff1681526020019081526020016000206000019050600081805490509050600181611e3991906144ef565b851115611e7b576040517f08c379a0000000000000000000000000000000000000000000000000000000008152600401611e729061456f565b60405180910390fd5b818581548110611e8e57611e8d61458f565b5b906000526020600020906004020160030184604051611ead9190614c0a565b90815260200160405180910390206000611ec79190613734565b6040518060600160405280602b8152602001614e84602b91399250505092915050565b606060008060003373ffffffffffffffffffffffffffffffffffffffff1673ffffffffffffffffffffffffffffffffffffffff1681526020019081526020016000206000019050600073__$585528fa2d4d541c3e6777d663634a359d$__638d00e5ff836040518263ffffffff1660e01b8152600401611f6a9190614463565b602060405180830381865af4158015611f87573d6000803e3d6000fd5b505050506040513d601f19601f82011682018060405250810190611fab9190614493565b9050600181611fba91906144ef565b841115611ffc576040517f08c379a0000000000000000000000000000000000000000000000000000000008152600401611ff39061456f565b60405180910390fd5b60008285815481106120115761201061458f565b5b9060005260206000209060040201600101905060008180549050905060005b8181101561249a57600083828154811061204d5761204c61458f565b5b9060005260206000200160009054906101000a900473ffffffffffffffffffffffffffffffffffffffff16905060008060008373ffffffffffffffffffffffffffffffffffffffff1673ffffffffffffffffffffffffffffffffffffffff16815260200190815260200160002060010190506000818054905090506000826001836120d891906144ef565b815481106120e9576120e861458f565b5b906000526020600020906003020190508a816001015414801561215b57503373ffffffffffffffffffffffffffffffffffffffff168160020160009054906101000a900473ffffffffffffffffffffffffffffffffffffffff1673ffffffffffffffffffffffffffffffffffffffff16145b156121ce578280548061217157612170614d1f565b5b60019003818190600052602060002090600302016000808201600061219691906136f4565b60018201600090556002820160006101000a81549073ffffffffffffffffffffffffffffffffffffffff021916905550509055612483565b60005b82811015612481578b8482815481106121ed576121ec61458f565b5b90600052602060002090600302016001015414801561227b57503373ffffffffffffffffffffffffffffffffffffffff168482815481106122315761223061458f565b5b906000526020600020906003020160020160009054906101000a900473ffffffffffffffffffffffffffffffffffffffff1673ffffffffffffffffffffffffffffffffffffffff16145b15612470578381815481106122935761229261458f565b5b9060005260206000209060030201846001856122af91906144ef565b815481106122c0576122bf61458f565b5b9060005260206000209060030201600082018160000190816122e29190614c37565b50600182015481600101556002820160009054906101000a900473ffffffffffffffffffffffffffffffffffffffff168160020160006101000a81548173ffffffffffffffffffffffffffffffffffffffff021916908373ffffffffffffffffffffffffffffffffffffffff1602179055509050508184828154811061236b5761236a61458f565b5b90600052602060002090600302016000820181600001908161238d9190614c37565b50600182015481600101556002820160009054906101000a900473ffffffffffffffffffffffffffffffffffffffff168160020160006101000a81548173ffffffffffffffffffffffffffffffffffffffff021916908373ffffffffffffffffffffffffffffffffffffffff1602179055509050508380548061241357612412614d1f565b5b60019003818190600052602060002090600302016000808201600061243891906136f4565b60018201600090556002820160006101000a81549073ffffffffffffffffffffffffffffffffffffffff021916905550509055612481565b8061247a9061461e565b90506121d1565b505b5050505080806124929061461e565b915050612030565b50600067ffffffffffffffff8111156124b6576124b56138a3565b5b6040519080825280602002602001820160405280156124e45781602001602082028036833780820191505090505b508487815481106124f8576124f761458f565b5b9060005260206000209060040201600101908051906020019061251c929190613758565b50604051806060016040528060218152602001614e4060219139945050505050919050565b60606000803373ffffffffffffffffffffffffffffffffffffffff1673ffffffffffffffffffffffffffffffffffffffff168152602001908152602001600020600101805480602002602001604051908101604052809291908181526020016000905b828210156126c857838290600052602060002090600302016040518060600160405290816000820180546125d7906145ed565b80601f0160208091040260200160405190810160405280929190818152602001828054612603906145ed565b80156126505780601f1061262557610100808354040283529160200191612650565b820191906000526020600020905b81548152906001019060200180831161263357829003601f168201915b50505050508152602001600182015481526020016002820160009054906101000a900473ffffffffffffffffffffffffffffffffffffffff1673ffffffffffffffffffffffffffffffffffffffff1673ffffffffffffffffffffffffffffffffffffffff1681525050815260200190600101906125a4565b50505050905090565b6000803373ffffffffffffffffffffffffffffffffffffffff1673ffffffffffffffffffffffffffffffffffffffff16815260200190815260200160002060000182815481106127245761272361458f565b5b9060005260206000209060040201600101819080600181540180825580915050600190039060005260206000200160009091909190916101000a81548173ffffffffffffffffffffffffffffffffffffffff021916908373ffffffffffffffffffffffffffffffffffffffff1602179055505050565b6000808273ffffffffffffffffffffffffffffffffffffffff1673ffffffffffffffffffffffffffffffffffffffff16815260200190815260200160002060010160405180606001604052808481526020018581526020013373ffffffffffffffffffffffffffffffffffffffff168152509080600181540180825580915050600190039060005260206000209060030201600090919091909150600082015181600001908161284a9190614afc565b506020820151816001015560408201518160020160006101000a81548173ffffffffffffffffffffffffffffffffffffffff021916908373ffffffffffffffffffffffffffffffffffffffff1602179055505050505050565b6128ab6136d3565b60008060008473ffffffffffffffffffffffffffffffffffffffff1673ffffffffffffffffffffffffffffffffffffffff1681526020019081526020016000206000018581548110612900576128ff61458f565b5b906000526020600020906004020190506000816000018054612921906145ed565b80601f016020809104026020016040519081016040528092919081815260200182805461294d906145ed565b801561299a5780601f1061296f5761010080835404028352916020019161299a565b820191906000526020600020905b81548152906001019060200180831161297d57829003601f168201915b505050505090506000826001019050600083600301876040516129bd9190614c0a565b9081526020016040518091039020905082856000018190525081805480602002602001604051908101604052809291908181526020018280548015612a5757602002820191906000526020600020905b8160009054906101000a900473ffffffffffffffffffffffffffffffffffffffff1673ffffffffffffffffffffffffffffffffffffffff1681526020019060010190808311612a0d575b5050505050856020018190525080805480602002602001604051908101604052809291908181526020016000905b82821015612b675783829060005260206000209060040201604051806080016040529081600082015481526020016001820154815260200160028201548152602001600382018054612ad6906145ed565b80601f0160208091040260200160405190810160405280929190818152602001828054612b02906145ed565b8015612b4f5780601f10612b2457610100808354040283529160200191612b4f565b820191906000526020600020905b815481529060010190602001808311612b3257829003601f168201915b50505050508152505081526020019060010190612a85565b505050508560400181905250505050509392505050565b6000806000803373ffffffffffffffffffffffffffffffffffffffff1673ffffffffffffffffffffffffffffffffffffffff168152602001908152602001600020600101805480602002602001604051908101604052809291908181526020016000905b82821015612d065783829060005260206000209060030201604051806060016040529081600082018054612c15906145ed565b80601f0160208091040260200160405190810160405280929190818152602001828054612c41906145ed565b8015612c8e5780601f10612c6357610100808354040283529160200191612c8e565b820191906000526020600020905b815481529060010190602001808311612c7157829003601f168201915b50505050508152602001600182015481526020016002820160009054906101000a900473ffffffffffffffffffffffffffffffffffffffff1673ffffffffffffffffffffffffffffffffffffffff1673ffffffffffffffffffffffffffffffffffffffff168152505081526020019060010190612be2565b50505050905060008151905060005b81811015612e185773__$585528fa2d4d541c3e6777d663634a359d$__6375b83187848381518110612d4a57612d4961458f565b5b602002602001015160000151876040518363ffffffff1660e01b8152600401612d74929190614dba565b602060405180830381865af4158015612d91573d6000803e3d6000fd5b505050506040513d601f19601f82011682018060405250810190612db591906148a6565b8015612dde575085838281518110612dd057612dcf61458f565b5b602002602001015160200151145b15612e0557828181518110612df657612df561458f565b5b60200260200101516040015193505b8080612e109061461e565b915050612d15565b50505092915050565b60008060008373ffffffffffffffffffffffffffffffffffffffff1673ffffffffffffffffffffffffffffffffffffffff1681526020019081526020016000206000018381548110612e7657612e7561458f565b5b90600052602060002090600402016001019050600081805490509050600082600183612ea291906144ef565b81548110612eb357612eb261458f565b5b9060005260206000200160009054906101000a900473ffffffffffffffffffffffffffffffffffffffff1690508073ffffffffffffffffffffffffffffffffffffffff163373ffffffffffffffffffffffffffffffffffffffff1603612f5e5782805480612f2457612f23614d1f565b5b6001900381819060005260206000200160006101000a81549073ffffffffffffffffffffffffffffffffffffffff02191690559055613095565b60005b8281101561309357838181548110612f7c57612f7b61458f565b5b9060005260206000200160009054906101000a900473ffffffffffffffffffffffffffffffffffffffff1673ffffffffffffffffffffffffffffffffffffffff163373ffffffffffffffffffffffffffffffffffffffff16036130805781848281548110612fed57612fec61458f565b5b9060005260206000200160006101000a81548173ffffffffffffffffffffffffffffffffffffffff021916908373ffffffffffffffffffffffffffffffffffffffff1602179055508380548061304657613045614d1f565b5b6001900381819060005260206000200160006101000a81549073ffffffffffffffffffffffffffffffffffffffff02191690559055613093565b808061308b9061461e565b915050612f61565b505b5050505050565b60008060003373ffffffffffffffffffffffffffffffffffffffff1673ffffffffffffffffffffffffffffffffffffffff168152602001908152602001600020600101805480602002602001604051908101604052809291908181526020016000905b828210156132235783829060005260206000209060030201604051806060016040529081600082018054613132906145ed565b80601f016020809104026020016040519081016040528092919081815260200182805461315e906145ed565b80156131ab5780601f10613180576101008083540402835291602001916131ab565b820191906000526020600020905b81548152906001019060200180831161318e57829003601f168201915b50505050508152602001600182015481526020016002820160009054906101000a900473ffffffffffffffffffffffffffffffffffffffff1673ffffffffffffffffffffffffffffffffffffffff1673ffffffffffffffffffffffffffffffffffffffff1681525050815260200190600101906130ff565b50505050905060008151905060008111156135f95760008260018361324891906144ef565b815181106132595761325861458f565b5b6020026020010151905073__$585528fa2d4d541c3e6777d663634a359d$__6375b831878260000151876040518363ffffffff1660e01b81526004016132a0929190614dba565b602060405180830381865af41580156132bd573d6000803e3d6000fd5b505050506040513d601f19601f820116820180604052508101906132e191906148a6565b801561331c57508373ffffffffffffffffffffffffffffffffffffffff16816040015173ffffffffffffffffffffffffffffffffffffffff16145b156133cf576000803373ffffffffffffffffffffffffffffffffffffffff1673ffffffffffffffffffffffffffffffffffffffff16815260200190815260200160002060010180548061337257613371614d1f565b5b60019003818190600052602060002090600302016000808201600061339791906136f4565b60018201600090556002820160006101000a81549073ffffffffffffffffffffffffffffffffffffffff0219169055505090556135f3565b60005b828110156135f15773__$585528fa2d4d541c3e6777d663634a359d$__6375b831878583815181106134075761340661458f565b5b602002602001015160000151886040518363ffffffff1660e01b8152600401613431929190614dba565b602060405180830381865af415801561344e573d6000803e3d6000fd5b505050506040513d601f19601f8201168201806040525081019061347291906148a6565b80156134c757508473ffffffffffffffffffffffffffffffffffffffff168482815181106134a3576134a261458f565b5b60200260200101516040015173ffffffffffffffffffffffffffffffffffffffff16145b156135de578381815181106134df576134de61458f565b5b6020026020010151846001856134f591906144ef565b815181106135065761350561458f565b5b6020026020010181905250818482815181106135255761352461458f565b5b60200260200101819052506000803373ffffffffffffffffffffffffffffffffffffffff1673ffffffffffffffffffffffffffffffffffffffff16815260200190815260200160002060010180548061358157613580614d1f565b5b6001900381819060005260206000209060030201600080820160006135a691906136f4565b60018201600090556002820160006101000a81549073ffffffffffffffffffffffffffffffffffffffff0219169055505090556135f1565b80806135e99061461e565b9150506133d2565b505b506136a3565b6000803373ffffffffffffffffffffffffffffffffffffffff1673ffffffffffffffffffffffffffffffffffffffff16815260200190815260200160002060010180548061364a57613649614d1f565b5b60019003818190600052602060002090600302016000808201600061366f91906136f4565b60018201600090556002820160006101000a81549073ffffffffffffffffffffffffffffffffffffffff0219169055505090555b50505050565b60405180608001604052806060815260200160008152602001606081526020016000151581525090565b60405180606001604052806060815260200160608152602001606081525090565b508054613700906145ed565b6000825580601f106137125750613731565b601f01602090049060005260206000209081019061373091906137e2565b5b50565b508054600082556004029060005260206000209081019061375591906137ff565b50565b8280548282559060005260206000209081019282156137d1579160200282015b828111156137d05782518260006101000a81548173ffffffffffffffffffffffffffffffffffffffff021916908373ffffffffffffffffffffffffffffffffffffffff16021790555091602001919060010190613778565b5b5090506137de91906137e2565b5090565b5b808211156137fb5760008160009055506001016137e3565b5090565b5b8082111561383a576000808201600090556001820160009055600282016000905560038201600061383191906136f4565b50600401613800565b5090565b6000604051905090565b600080fd5b600080fd5b6000819050919050565b61386581613852565b811461387057600080fd5b50565b6000813590506138828161385c565b92915050565b600080fd5b600080fd5b6000601f19601f8301169050919050565b7f4e487b7100000000000000000000000000000000000000000000000000000000600052604160045260246000fd5b6138db82613892565b810181811067ffffffffffffffff821117156138fa576138f96138a3565b5b80604052505050565b600061390d61383e565b905061391982826138d2565b919050565b600067ffffffffffffffff821115613939576139386138a3565b5b61394282613892565b9050602081019050919050565b82818337600083830152505050565b600061397161396c8461391e565b613903565b90508281526020810184848401111561398d5761398c61388d565b5b61399884828561394f565b509392505050565b600082601f8301126139b5576139b4613888565b5b81356139c584826020860161395e565b91505092915050565b600073ffffffffffffffffffffffffffffffffffffffff82169050919050565b60006139f9826139ce565b9050919050565b613a09816139ee565b8114613a1457600080fd5b50565b600081359050613a2681613a00565b92915050565b600080600060608486031215613a4557613a44613848565b5b6000613a5386828701613873565b935050602084013567ffffffffffffffff811115613a7457613a7361384d565b5b613a80868287016139a0565b9250506040613a9186828701613a17565b9150509250925092565b600081519050919050565b600082825260208201905092915050565b60005b83811015613ad5578082015181840152602081019050613aba565b60008484015250505050565b6000613aec82613a9b565b613af68185613aa6565b9350613b06818560208601613ab7565b613b0f81613892565b840191505092915050565b60006020820190508181036000830152613b348184613ae1565b905092915050565b600081519050919050565b600082825260208201905092915050565b6000819050602082019050919050565b600082825260208201905092915050565b6000613b8482613a9b565b613b8e8185613b68565b9350613b9e818560208601613ab7565b613ba781613892565b840191505092915050565b613bbb81613852565b82525050565b600081519050919050565b600082825260208201905092915050565b6000819050602082019050919050565b613bf6816139ee565b82525050565b6000613c088383613bed565b60208301905092915050565b6000602082019050919050565b6000613c2c82613bc1565b613c368185613bcc565b9350613c4183613bdd565b8060005b83811015613c72578151613c598882613bfc565b9750613c6483613c14565b925050600181019050613c45565b5085935050505092915050565b60008115159050919050565b613c9481613c7f565b82525050565b60006080830160008301518482036000860152613cb78282613b79565b9150506020830151613ccc6020860182613bb2565b5060408301518482036040860152613ce48282613c21565b9150506060830151613cf96060860182613c8b565b508091505092915050565b6000613d108383613c9a565b905092915050565b6000602082019050919050565b6000613d3082613b3c565b613d3a8185613b47565b935083602082028501613d4c85613b58565b8060005b85811015613d885784840389528151613d698582613d04565b9450613d7483613d18565b925060208a01995050600181019050613d50565b50829750879550505050505092915050565b60006020820190508181036000830152613db48184613d25565b905092915050565b60008060408385031215613dd357613dd2613848565b5b6000613de185828601613873565b925050602083013567ffffffffffffffff811115613e0257613e0161384d565b5b613e0e858286016139a0565b9150509250929050565b600081519050919050565b600082825260208201905092915050565b6000819050602082019050919050565b6000608083016000830151613e5c6000860182613bb2565b506020830151613e6f6020860182613bb2565b506040830151613e826040860182613bb2565b5060608301518482036060860152613e9a8282613b79565b9150508091505092915050565b6000613eb38383613e44565b905092915050565b6000602082019050919050565b6000613ed382613e18565b613edd8185613e23565b935083602082028501613eef85613e34565b8060005b85811015613f2b5784840389528151613f0c8582613ea7565b9450613f1783613ebb565b925060208a01995050600181019050613ef3565b50829750879550505050505092915050565b60006060830160008301518482036000860152613f5a8282613b79565b91505060208301518482036020860152613f748282613c21565b91505060408301518482036040860152613f8e8282613ec8565b9150508091505092915050565b60006020820190508181036000830152613fb58184613f3d565b905092915050565b600060208284031215613fd357613fd2613848565b5b600082013567ffffffffffffffff811115613ff157613ff061384d565b5b613ffd848285016139a0565b91505092915050565b60008060006060848603121561401f5761401e613848565b5b600061402d86828701613873565b935050602084013567ffffffffffffffff81111561404e5761404d61384d565b5b61405a868287016139a0565b925050604084013567ffffffffffffffff81111561407b5761407a61384d565b5b614087868287016139a0565b9150509250925092565b60008060008060008060c087890312156140ae576140ad613848565b5b60006140bc89828a01613873565b96505060206140cd89828a01613873565b95505060406140de89828a01613873565b94505060606140ef89828a01613873565b935050608087013567ffffffffffffffff8111156141105761410f61384d565b5b61411c89828a016139a0565b92505060a087013567ffffffffffffffff81111561413d5761413c61384d565b5b61414989828a016139a0565b9150509295509295509295565b60008060006060848603121561416f5761416e613848565b5b600061417d86828701613873565b935050602061418e86828701613873565b925050604084013567ffffffffffffffff8111156141af576141ae61384d565b5b6141bb868287016139a0565b9150509250925092565b600080604083850312156141dc576141db613848565b5b60006141ea85828601613873565b92505060206141fb85828601613a17565b9150509250929050565b600080600080600080600060e0888a03121561422457614223613848565b5b60006142328a828b01613873565b97505060206142438a828b01613873565b96505060406142548a828b01613873565b95505060606142658a828b01613873565b945050608088013567ffffffffffffffff8111156142865761428561384d565b5b6142928a828b016139a0565b93505060a088013567ffffffffffffffff8111156142b3576142b261384d565b5b6142bf8a828b016139a0565b92505060c088013567ffffffffffffffff8111156142e0576142df61384d565b5b6142ec8a828b016139a0565b91505092959891949750929550565b60006020828403121561431157614310613848565b5b600061431f84828501613873565b91505092915050565b600081519050919050565b600082825260208201905092915050565b6000819050602082019050919050565b600060608301600083015184820360008601526143718282613b79565b91505060208301516143866020860182613bb2565b5060408301516143996040860182613bed565b508091505092915050565b60006143b08383614354565b905092915050565b6000602082019050919050565b60006143d082614328565b6143da8185614333565b9350836020820285016143ec85614344565b8060005b85811015614428578484038952815161440985826143a4565b9450614414836143b8565b925060208a019950506001810190506143f0565b50829750879550505050505092915050565b6000602082019050818103600083015261445481846143c5565b905092915050565b8082525050565b6000602082019050614478600083018461445c565b92915050565b60008151905061448d8161385c565b92915050565b6000602082840312156144a9576144a8613848565b5b60006144b78482850161447e565b91505092915050565b7f4e487b7100000000000000000000000000000000000000000000000000000000600052601160045260246000fd5b60006144fa82613852565b915061450583613852565b925082820390508181111561451d5761451c6144c0565b5b92915050565b7f496e76616c69642073746f726520696e64657800000000000000000000000000600082015250565b6000614559601383613aa6565b915061456482614523565b602082019050919050565b600060208201905081810360008301526145888161454c565b9050919050565b7f4e487b7100000000000000000000000000000000000000000000000000000000600052603260045260246000fd5b7f4e487b7100000000000000000000000000000000000000000000000000000000600052602260045260246000fd5b6000600282049050600182168061460557607f821691505b602082108103614618576146176145be565b5b50919050565b600061462982613852565b91507fffffffffffffffffffffffffffffffffffffffffffffffffffffffffffffffff820361465b5761465a6144c0565b5b600182019050919050565b7f4c696d69746174696f6e20746f20637265617465206576656e742073746f7265600082015250565b600061469c602083613aa6565b91506146a782614666565b602082019050919050565b600060208201905081810360008301526146cb8161468f565b9050919050565b600082825260208201905092915050565b60006146ee82613a9b565b6146f881856146d2565b9350614708818560208601613ab7565b61471181613892565b840191505092915050565b6000602082019050818103600083015261473681846146e3565b905092915050565b7f496e76616c6964207469746c6500000000000000000000000000000000000000600082015250565b6000614774600d83613aa6565b915061477f8261473e565b602082019050919050565b600060208201905081810360008301526147a381614767565b9050919050565b60008190508160005260206000209050919050565b600081546147cc816145ed565b6147d681866146d2565b945060018216600081146147f157600181146148075761483a565b60ff19831686528115156020028601935061483a565b614810856147aa565b60005b8381101561483257815481890152600182019150602081019050614813565b808801955050505b50505092915050565b6000604082019050818103600083015261485d81856147bf565b9050818103602083015261487181846146e3565b90509392505050565b61488381613c7f565b811461488e57600080fd5b50565b6000815190506148a08161487a565b92915050565b6000602082840312156148bc576148bb613848565b5b60006148ca84828501614891565b91505092915050565b7f43616e6e6f7420637265617465206475706c6963617465206e616d65206f662060008201527f6576656e742073746f7265000000000000000000000000000000000000000000602082015250565b600061492f602b83613aa6565b915061493a826148d3565b604082019050919050565b6000602082019050818103600083015261495e81614922565b9050919050565b60006020601f8301049050919050565b600082821b905092915050565b6000600883026149b27fffffffffffffffffffffffffffffffffffffffffffffffffffffffffffffffff82614975565b6149bc8683614975565b95508019841693508086168417925050509392505050565b6000819050919050565b60006149f96149f46149ef84613852565b6149d4565b613852565b9050919050565b6000819050919050565b614a13836149de565b614a27614a1f82614a00565b848454614982565b825550505050565b600090565b614a3c614a2f565b614a47818484614a0a565b505050565b5b81811015614a6b57614a60600082614a34565b600181019050614a4d565b5050565b601f821115614ab057614a81816147aa565b614a8a84614965565b81016020851015614a99578190505b614aad614aa585614965565b830182614a4c565b50505b505050565b600082821c905092915050565b6000614ad360001984600802614ab5565b1980831691505092915050565b6000614aec8383614ac2565b9150826002028217905092915050565b614b0582613a9b565b67ffffffffffffffff811115614b1e57614b1d6138a3565b5b614b2882546145ed565b614b33828285614a6f565b600060209050601f831160018114614b665760008415614b54578287015190505b614b5e8582614ae0565b865550614bc6565b601f198416614b74866147aa565b60005b82811015614b9c57848901518255600182019150602085019450602081019050614b77565b86831015614bb95784890151614bb5601f891682614ac2565b8355505b6001600288020188555050505b505050505050565b600081905092915050565b6000614be482613a9b565b614bee8185614bce565b9350614bfe818560208601613ab7565b80840191505092915050565b6000614c168284614bd9565b915081905092915050565b600081549050614c30816145ed565b9050919050565b818103614c45575050614d1d565b614c4e82614c21565b67ffffffffffffffff811115614c6757614c666138a3565b5b614c7182546145ed565b614c7c828285614a6f565b6000601f831160018114614cab5760008415614c99578287015490505b614ca38582614ae0565b865550614d16565b601f198416614cb9876147aa565b9650614cc4866147aa565b60005b82811015614cec57848901548255600182019150600185019450602081019050614cc7565b86831015614d095784890154614d05601f891682614ac2565b8355505b6001600288020188555050505b5050505050505b565b7f4e487b7100000000000000000000000000000000000000000000000000000000600052603160045260246000fd5b7f496e76616c69642073746f7265207469746c6500000000000000000000000000600082015250565b6000614d84601383613aa6565b9150614d8f82614d4e565b602082019050919050565b60006020820190508181036000830152614db381614d77565b9050919050565b60006040820190508181036000830152614dd481856146e3565b90508181036020830152614de881846146e3565b9050939250505056fe52656d6f7665206163636f756e742070617274696369706174696f6e207375636365737366756c6c79496e7669746174696f6e2070617274696369706174696f6e207375636365737366756c6c7952656d6f766520616c6c2070617274696369706174696f6e206163636f756e74734576656e74207363686564756c652064656c65746564207375636365737366756c6c7944656c65746520616c6c206576656e7420696e2074686973206d6f6e7468207375636365737366756c6c79437265617465206e6577206576656e742073746f7265207375636365737366756c6c79a264697066735822122058aa7118152c52d8486e530ee19a99a0485a429323f20809ccbb9b83bd0b612064736f6c63430008110033",
  "linkReferences": {
    "contracts/lib/Library.sol": {
      "Library": [
        {
          "length": 20,
          "start": 982
        },
        {
          "length": 20,
          "start": 2035
        },
        {
          "length": 20,
          "start": 2227
        },
        {
          "length": 20,
          "start": 2422
        },
        {
          "length": 20,
          "start": 3181
        },
        {
          "length": 20,
          "start": 3493
        },
        {
          "length": 20,
          "start": 4043
        },
        {
          "length": 20,
          "start": 7100
        },
        {
          "length": 20,
          "start": 7233
        },
        {
          "length": 20,
          "start": 8021
        },
        {
          "length": 20,
          "start": 11583
        },
        {
          "length": 20,
          "start": 12933
        },
        {
          "length": 20,
          "start": 13308
        }
      ]
    }
  },
  "deployedLinkReferences": {
    "contracts/lib/Library.sol": {
      "Library": [
        {
          "length": 20,
          "start": 950
        },
        {
          "length": 20,
          "start": 2003
        },
        {
          "length": 20,
          "start": 2195
        },
        {
          "length": 20,
          "start": 2390
        },
        {
          "length": 20,
          "start": 3149
        },
        {
          "length": 20,
          "start": 3461
        },
        {
          "length": 20,
          "start": 4011
        },
        {
          "length": 20,
          "start": 7068
        },
        {
          "length": 20,
          "start": 7201
        },
        {
          "length": 20,
          "start": 7989
        },
        {
          "length": 20,
          "start": 11551
        },
        {
          "length": 20,
          "start": 12901
        },
        {
          "length": 20,
          "start": 13276
        }
      ]
    }
  }
}